:020000040800F2
:1000000010100020010100087915000807120008EF
:1000100075150008050C0008B52600080000000052
:10002000000000000000000000000000F51E0008B5
:10003000A50E000800000000791E000875220008C7
:100040001701000817010008170100081701000830
:100050001701000817010008170100081701000820
:100060001701000817010008170100081701000810
:100070001701000817010008170100081701000800
:1000800017010008170100081701000817010008F0
:1000900017010008170100081701000817010008E0
:1000A00017010008170100081701000817010008D0
:1000B000AD22000829230008BD230008170100080D
:1000C00017010008170100081701000817010008B0
:1000D0001701000817010008D524000805250008AD
:1000E000170100081701000817010008DFF80CD0FD
:1000F00000F090FB00480047714A000810100020F3
:1001000005480047FEE7FEE7FEE7FEE7FEE7FEE7FD
:10011000FEE7FEE7FEE7FEE7ED00000840EA010328
:100120009B0703D009E008C9121F08C0042AFAD2AD
:1001300003E011F8013B00F8013B521EF9D2704771
:10014000D2B201E000F8012B491EFBD27047002219
:10015000F6E710B513460A4604461946FFF7F0FFC6
:10016000204610BDF0B480EA0102D40F4200B2EB89
:10017000410F02D20246084611464A0042D0C30D42
:10018000DDB2C1F3C752AD1A202D35DAC1F3160125
:1001900041F4000204B15242C5F1200602FA06F110
:1001A0002A411044B3EBD05F23D0C4B1012DA0EBA2
:1001B000C35009DCF0BC4FF0004202EAC352DBB28C
:1001C00000F5000000F09BBA400000F1807000EBE9
:1001D000C350A0F1807040EAD170490009E049089D
:1001E00041EAC071A0EBC35000F50000400800EBED
:1001F000C350F0BC00F07ABA6142012202EB410127
:10020000001BF6E7F0BC704781F00041AAE780F0E0
:100210000040A7E780EA010210B502F00043400069
:1002200022D04A001FD0010E01EB1261C0F356002C
:10023000C2F3560240F4000042F40002A0FB022088
:1002400000047F39140400D0401C50EA124001D44D
:100250004000491EC2B20C0604EBD010401C4008FE
:10026000802A02D003E0002010BD20F00100002908
:1002700000DA0020184310BD30B480EA010202F019
:10028000004530F0004221F0004013D090B1C30D82
:10029000D40DC2F31601C0F31600E41A41F40001B4
:1002A00040F400027D34914201D3641C00E0490017
:1002B000002C02DA30BC002070474FF4000000230D
:1002C000914201D3891A034340084FEA4101F7D113
:1002D00051B1914202D14FF0004105E002D24FF0FE
:1002E000010101E06FF0010103EBC450284430BC70
:1002F00000F0FCB92DE9FE4F804681EA0300C00FF3
:100300000C46009021F0004123F00045B8EB0200BC
:10031000A94105D24046214690461C460B4602465E
:1003200023F00040104347D0270DC7F30A00C3F362
:100330000A510290401A019040286BDAC3F313006F
:1003400040F4801B0098924620B10023D2EB030AB0
:1003500063EB0B0B01985946C0F14002504600F088
:1003600094F906460D4650465946019A00F0ACF9FC
:1003700010EB08006141002487EA115284EAE77318
:100380001A4340D0009A62B3019A012A4FEA0752F9
:1003900015DC001B61EB02014FF0004202EA07523C
:1003A000CDE90042001C41F5801132462B4600F099
:1003B000E3F903B0BDE8F08F40462146F9E7001BA2
:1003C00061EB0201001C41F5801300185B4120180D
:1003D000A2F5001747EB030140EAD570B6196D414D
:1003E00011E06D084FEA360645EAC0754FEA07523C
:1003F000001B61EB0201001C41F5801149084FEA26
:1004000030000019514132462B4603B0BDE8F04F91
:1004100000F0A3B90098012240000023D0EB0202B3
:1004200063EBE073009821464FEAE074B8EB0000FC
:1004300061EB0401E9E783F000435BE781F00041F1
:1004400058E72DE9FE4F81EA030404F0004421F04F
:10045000004100944FF0000B23F0004350EA0104E8
:100460005ED052EA03045BD0C3F30A54C1F30A55C9
:100470002C44A4F2F3340194A0FB0254C1F3130101
:1004800041F48011C3F3130343F4801301FB0244CE
:1004900000FB034E840A970A44EA815447EA8357D3
:1004A000A4FB076802958D0A05FB07854FEA932C8C
:1004B00004FB0C542705029D4FEA065847EA1637FD
:1004C000B5EB08056EEB070C870E920E47EA811715
:1004D00042EA8312A7FB0201B6EB0B0164EB0004B6
:1004E0002B0D43EA0C335E1844EB1C50DA465146A0
:1004F000E7FB0201C5F313044FEA0B3343EA14533D
:100500004FEA0432019C43EA0603A4F10C0402946E
:10051000009CCDE900B400F02FF903B0BDE8F08FE6
:1005200000200146F9E7C10F80EAE0700844CA07DD
:100530009623002100F0E3B896230022114600F034
:10054000DEB820F00040C10DC0F3160040F40000FA
:100550007F2901DA00207047962903DCC1F196015A
:10056000C840704796398840704770B5C1F30A5249
:1005700001F000450024C1F3130140F2FF3341F4C0
:1005800080119A4201DA002070BD40F233439A4252
:10059000A2F2334203DC524200F086F800E09040C1
:1005A0002C43F1D0404270BDC1F30A5210B5C1F3E3
:1005B000130140F2FF3341F480119A4201DA002026
:1005C00010BD40F233439A42A2F2334203DC52425E
:1005D00000F06AF810BD904010BD00F0004230F00D
:1005E00000400AD0C10D01F56071C0F3160042EA67
:1005F0000151C2084007114370470020014670476F
:10060000002801DBC0F10040002901DBC1F10041FD
:1006100081427047002801DBC0F10040002901DB66
:10062000C1F10041884270472DE9F05F0546002086
:1006300092469B4688460646814640241BE0284653
:1006400041464746224600F02FF853465A46C01A04
:10065000914110D311461846224600F016F82D1A83
:1006600067EB01084F4622460120002100F00DF8FB
:1006700017EB00094E41201EA4F10104DFDC4846BF
:1006800031462A464346BDE8F09F202A04DB203A43
:1006900000FA02F1002070479140C2F1200320FAD5
:1006A00003F3194390407047202A04DB203A21FAD3
:1006B00002F00021704721FA02F3D040C2F120027B
:1006C0009140084319467047202A06DBCB17203A91
:1006D00041FA02F043EAE07306E041FA02F3D04047
:1006E000C2F1200291400843194670470029A8BF73
:1006F0007047401C490008BF20F00100704710B44B
:10070000B0FA80FC00FA0CF050EA010404BF10BCFF
:10071000704749B1CCF1200421FA04F411FA0CF12C
:1007200018BF012121430843A3EB0C01CB1D4FEA65
:1007300000614FEA102042BF002010BC704700EB60
:10074000C35010440029A4BF10BC7047401C49008E
:1007500008BF20F0010010BC704710B5141E73F1E3
:10076000000408DA401C41F1000192185B411A4371
:1007700001D120F0010010BD2DE9F04D92469B46BD
:1007800011B1B1FA81F202E0B0FA80F22032904663
:10079000FFF77BFF04460F4640EA0A0041EA0B01DF
:1007A00053465A46084313D0114653EA010019D064
:1007B000C8F140025046FFF777FF05460E46504607
:1007C00059464246FFF761FF084305D0012004E087
:1007D00020463946BDE8F08D0020054346EAE07624
:1007E0002C4337430A986305E40AA0EB0800002273
:1007F000FD0A44EA47540A3002D500200146E9E7E1
:10080000010510196941DDE9084500196941BDE894
:10081000F04DA2E7064C074D06E0E06840F001030A
:1008200094E8070098471034AC42F6D3FFF762FC17
:100830003C7100085C71000800B591B001214802CC
:1008400001F048FB0121042001F044FB012108468E
:1008500001F020FB0121042001F03CFB4FF400409B
:1008600001F00CFB00208DF843000120ADF84000A2
:1008700003208DF8420010A9334800F027FC4820DF
:100880008DF843000220ADF8400003208DF84200AF
:1008900010A92D4800F01AFC0523012200212B4845
:1008A00000F0F6F800200B900E904FF460200D90B1
:1008B00001208DF831008DF830008DF83C000BA937
:1008C000224800F081F821484C30009080150690B5
:1008D000002004901E4801904FF480600790802013
:1008E0000590002002900120039020200890002015
:1008F0000A904FF4805009906946164800F09CF920
:100900000121144800F08CF90121104800F02FF863
:1009100001210E4800F020F80C4800F015F900BF46
:100920000A4800F046F80128FAD0084800F01CF9FF
:1009300000BF064800F026F80128FAD0012103483C
:1009400000F007F911B000BD00080140002401408B
:100950005C0000200800024021B1826842F00102E0
:10096000826003E0826822F001028260704721B158
:10097000826842F48072826003E0826822F48072AE
:1009800082607047014600208A6802F004020AB1C2
:10099000012000E0002070470146C86C80B270471B
:1009A0000246002013680B400BB1012000E000203C
:1009B0007047014600208A6802F008020AB101204F
:1009C00000E000207047000030B502460020002300
:1009D00050680F4C20400D790C6844EA05242043F0
:1009E000506090680B4C2040D1E902542C434D7963
:1009F00044EA450420439060D06A20F470000C7CE7
:100A0000641EE4B2234340EA0350D06230BD0000CC
:100A1000FFFEF0FFFDF7F1FF2DE9F047002400276E
:100A20000825072301220021164800F031F800268E
:100A300014E00121134800F08CF800BF0221114896
:100A4000FFF7AEFF0028F9D00E48FFF7A5FF2044BE
:100A500084B20A2002F03CF8701CC6B2AE42E8DB59
:100A600094FBF5F94846FFF75EFD80460649FFF71F
:100A7000D1FB06460549FFF7FFFB07463846BDE8B0
:100A8000F0870000002401403333534000F07F45DD
:100A9000F0B504460D4600200021092D11DDE06867
:100AA000A5F10A0606EB4607072606FA07F1884372
:100AB000A5F10A0606EB460603FA06F10843E060D4
:100AC0000CE0206905EB4507072606FA07F1884385
:100AD00005EB450603FA06F108432061072A0FDA01
:100AE000606B561E06EB86071F2606FA07F1884341
:100AF000561E06EB860605FA06F10843606322E0FF
:100B00000D2A0FDA206BD61F06EB86071F2606FA82
:100B100007F18843D61F06EB860605FA06F108435F
:100B2000206310E0E06AA2F10D0606EB86071F269F
:100B300006FA07F18843A2F10D0606EB860605FAD0
:100B400006F10843E062F0BD816841F00801816070
:100B5000704721B1826842F4A002826003E082689B
:100B600022F4A00282607047816841F00401816034
:100B70007047000010B5124A1168124A1068FFF75A
:100B800049FD06D30E4A51680E4A5068FFF742FDF0
:100B900003D201200C49487002E000200A49487045
:100BA000074A9168074A9068FFF72AFD03D20020A0
:100BB0000549087002E001200349087010BD0000DB
:100BC00014050020000500203400002008B5012194
:100BD000102001F07FF94FF40050ADF80000032021
:100BE0008DF8020010208DF803006946044800F0DB
:100BF0006DFA4FF40051024800F0FCFA08BD000005
:100C00000010014000BFFEE710B50448007810B1A5
:100C100000F05CFC01E000F063FC10BD340000203B
:100C200021B1026842F00102026004E002684FF65E
:100C3000FE731A400260704710B50022026847F642
:100C4000F0739A430C6A8B6823430C6923434C6905
:100C500023438C692343CC6923434C6A23438C6A26
:100C600023431A430260CB6843600B6883604B6880
:100C7000C36010BD10B50024002000F06DF804E042
:100C8000601CC4B2012001F023FF02210E4800F0D5
:100C9000A8FA08B1C82CF3DBC82C01DB012010BD79
:100CA000002404E0601CC4B2012001F011FF022105
:100CB000054800F096FA08B9F02CF3DBF02C01DBC4
:100CC0000120ECE70020EAE7000801402DE9F84F99
:100CD00000F0ACF800F094F8FFF7CCFFCC2000F067
:100CE000B1F8BE2000F0AEF800F078F8834600F0CE
:100CF00075F80446072C08DDE043C4B26FEA0B0028
:100D000000F0FF0B4FF0000A01E04FF0010AA1468E
:100D10004FEA09200FFA80F909EB0B000FFA80F96E
:100D20004846FFF700FC0090FFF757FC07460022FB
:100D3000084BFFF786FB0546FFF717FC0FFA80F913
:100D4000BAF1000F02D04846BDE8F88FC9F10000A3
:100D500000B2F9E70000E43F38B504460121042061
:100D600001F0B8F84CB10220ADF8000003208DF876
:100D7000020010208DF8030005E00220ADF800000D
:100D800004208DF803006946014800F09FF938BD42
:100D90000008014010B50120FFF7DEFF02210E48D8
:100DA00000F028FA022001F093FE02210A4800F028
:100DB00023FA0020FFF7D0FF0C2001F089FE02216A
:100DC000054800F00EFA08B1012400E000243220AA
:100DD00001F07EFE204610BD0008014070B50026DF
:100DE000012508E0FFF7D6FF0446E00140EA66006F
:100DF000C6B2681CC5B2082DF4DD304670BD0000D7
:100E000010B50120FFF7A8FF0221074800F0F2F912
:100E100040F2EE2001F05CFE0221034800F0ECF904
:100E20000F2001F055FE10BD0008014010B5FFF77E
:100E3000E7FFFFF71FFFCC2000F004F8442000F08C
:100E400001F810BD70B504460120FFF785FF0125AC
:100E500022E004F00106641076B10221104800F08F
:100E6000C9F9022001F034FE02210D4800F0C4F956
:100E70003C2001F02DFE0DE00221094800F0BAF9F6
:100E80003C2001F025FE0221054800F0B5F90220C2
:100E900001F01EFE681CC5B2082DDADD70BD000031
:100EA00000080140704700000149C8607047000019
:100EB0000020024030B5044604254FF4302000F0F5
:100EC000BCF80546042D17D10C48006940F002001B
:100ED0000A49086108464461006940F04000086121
:100EE0004FF4302000F0A9F805460448006941F6A7
:100EF000FD71084001490861284630BD00200240CC
:100F000004200B49C96801F0010109B101200EE07C
:100F10000749C96801F0040109B1022007E004494A
:100F2000C96801F0100109B1032000E004207047F6
:100F3000002002400348006940F080000149086138
:100F4000704700000020024070B504460D4604269C
:100F5000F00200F072F80646042E11D1094800692B
:100F600040F00100074908612580F00200F065F8B3
:100F700006460448006941F6FE71084001490861CF
:100F8000304670BD002002400146088870470000CE
:100F90002DE9F0411048FFF7F7FFC7B23846FFF7D9
:100FA000CBFA0E4908600C48801CFFF7EDFF0446A1
:100FB0000948001DFFF7E8FF054645EA04460748D3
:100FC00046600548801DFFF7DFFF0746FFF7B4FACC
:100FD00002498860BDE8F08100F001081405002096
:100FE0000248034948600348486070472301674549
:100FF00000200240AB89EFCD2DE9F04104460F46B9
:1010000015461E46FFF7ECFF3520FFF74DFF204643
:10101000FFF750FF39462046FFF796FF2946A01CF0
:10102000FFF792FF3146201DFFF78EFF3520FFF7B7
:101030003BFFFFF77FFFBDE8F08100B502460423C8
:10104000FFF75EFF034603E0FFF75AFF0346521E19
:10105000012B01D1002AF7D102B90523184600BDA2
:101060002DE9F05F82460D4616461F464FF07E582A
:101070004FF0000908E014494046FFF7CBF88046DE
:1010800009F1010000F0FF09A945F4DB4146504693
:10109000FFF7C0F883464FF07C51FFF763F88146B5
:1010A000FFF74FFA04464046FFF74BFAB4FBF0F067
:1010B00030604046FFF745FAB4FBF0F100FB114009
:1010C0003860BDE8F09F0000000020412DE9F041AC
:1010D000024600250026002000230024002791F866
:1010E00003C00CF00F0591F803C00CF0100CBCF11C
:1010F000000F03D091F802C04CEA050591F800C03A
:10110000BCF1000F31D0146800202BE04FF0010C2F
:101110000CFA00F3B1F800C00CEA03069E4220D19D
:1011200083004FF00F0C0CFA03F7BC4305FA03FCE5
:101130004CEA040491F803C0BCF1280F06D14FF02B
:10114000010C0CFA00FCC2F814C00AE091F803C0CC
:10115000BCF1480F05D14FF0010C0CFA00FCC2F8AD
:1011600010C0401C0828D1D31460B1F800C0BCF1F5
:10117000FF0F34DD546800202EE000F1080C4FF022
:10118000010808FA0CF3B1F800C00CEA03069E420D
:1011900021D183004FF00F0C0CFA03F7BC4305FA82
:1011A00003FC4CEA040491F803C0BCF1280F05D1FC
:1011B00000F1080C08FA0CF8C2F8148091F803C08A
:1011C000BCF1480F07D100F1080C4FF0010808FAF4
:1011D0000CF8C2F81080401C0828CED35460BDE83B
:1011E000F0810246002093680B400BB1012000E023
:1011F0000020704741617047016170470AB1016189
:1012000000E04161704700BFFEE7032000BF011E00
:10121000A0F10102D0B2FAD17047000010B54FF42E
:1012200080518B48FFF7DDFFB8B100208949087075
:10123000894908808948007828B1002087490870CA
:101240000120874908708748007870B300208549DD
:1012500008700B208249087027E07E480078A0B90A
:101260007D480088401C7C490880084600880A2880
:101270001BDD002008800120784908700020794992
:1012800008700120734908700FE073480088401C03
:101290007149088008460088B0F57A7F05DD002096
:1012A0006E49087001206F4908704FF4005168487A
:1012B000FFF797FFB8B100206B4908706B490880B1
:1012C0006B48007828B10020694908700220644901
:1012D00008706848007870B30020664908701620CE
:1012E0005F49087027E060480078A0B95F4800882F
:1012F000401C5E490880084600880A281BDD002043
:10130000088001205A49087000205A4908700120BD
:10131000554908700FE055480088401C5349088023
:1013200008460088B0F57A7F05DD00205049087036
:101330000120504908704FF480414548FFF751FFA4
:10134000B8B100204C4908704C4908804C480078DE
:1013500028B100204A4908700320414908704948D3
:10136000007870B300204749087021203C4908707C
:1013700027E041480078A0B940480088401C3F4918
:101380000880084600880A281BDD0020088001200C
:101390003B49087000203B4908700120364908701D
:1013A0000FE036480088401C344908800846008811
:1013B000B0F57A7F05DD0020314908700120314900
:1013C00008704FF400412248FFF70BFFB8B100202E
:1013D0002D4908702D4908802D48007828B100203B
:1013E0002B49087004201E4908702A48007870B301
:1013F0000020284908702C201949087027E022484D
:101400000078A0B921480088401C2049088008467F
:1014100000880A281BDD0020088001201C49087074
:1014200000201C4908700120174908700FE0174878
:101430000088401C1549088008460088B0F57A7F6E
:1014400005DD00201249087001201249087010BD06
:10145000000C01401D0000201A0000201C0000208C
:10146000310000201E00002023000020200000206A
:101470002200002024000020290000202600002057
:10148000280000202A0000202F0000202C0000202F
:101490002E0000203000002008B50121082000F0B7
:1014A00019FD10208DF803000120ADF80000032085
:1014B0008DF8020069460448FFF708FE0121024842
:1014C000FFF798FE08BD0000000C014010B5002297
:1014D00001210248FFF792FE10BD0000000C014000
:1014E00010B5012211460248FFF788FE10BD00002A
:1014F000000C0140012824D11349097803290DD19A
:101500000121124A91701146897809B1012100E048
:1015100000210F4A917000210B4A11700A49097885
:1015200004290DD10021094A91701146897809B129
:10153000012100E00021064A91700021024A117049
:1015400000E000BF00BF70473100002034000020E1
:101550006405002008B506488078012806D11023CC
:10156000132200210090602000F0E6F908BD000081
:101570003400002000BFFEE77047000070B5002176
:1015800000230F22C47804B3154C246804F4E064EB
:10159000C4F5E064210AC1F10403CA40447804FAA6
:1015A00003F184781440214309010E4C0678A155BB
:1015B000047804F01F050124AC4005786D11AD00DE
:1015C00005F1E025C5F8004109E0047804F01F05A5
:1015D0000124AC40044D0678761145F8264070BDD4
:1015E0000CED00E000E400E080E100E0024901438E
:1015F000024A1160704700000000FA050CED00E09F
:1016000070B500240CE0002506E00020074901EB3E
:10161000C5010855681CC5B2802DF6DB601CC4B23C
:10162000082CF0DB00F08EF870BD00008000002078
:10163000F0B514460B46CF1701EB5777C7F3C70237
:10164000CF1701EB5777FF10A1EBC707FEB20123BD
:10165000B340DDB24CB1134B03EBC0039B5C2B4397
:10166000104F07EBC007BB541AE00E4B03EBC0034F
:101670009B5CDB430B4F07EBC007BB54094B03EBF1
:10168000C0039B5C2B43074F07EBC007BB54054BC4
:1016900003EBC0039B5CDB43024F07EBC007BB546B
:1016A000F0BD00008000002010B580210A48FFF73F
:1016B000A3FD40210848FFF79FFDFFF7A6FD80210D
:1016C0000548FFF797FDFFF7A0FD40210248FFF70F
:1016D00091FDFFF79AFD10BD000C014010B580216F
:1016E0000648FFF787FD40210448FFF785FDFFF717
:1016F0008CFD80210148FFF77FFD10BD000C0140EB
:1017000010B580210848FFF777FDFFF77EFD4021E7
:101710000548FFF771FDFFF778FD40210248FFF70C
:1017200069FDFFF772FD10BD000C014010B50246C7
:10173000012000E050430B1EA1F10104E1B2F9D1F8
:1017400010BD000070B500242BE004F1B001C8B258
:10175000002100F0E4F90021084600F0E0F9002142
:10176000102000F0DCF9FFF79FFF782000F01EF852
:10177000FFF7C6FF402000F019F8FFF7C1FF002572
:1017800009E0094901EBC501085D00F00FF8FFF71A
:10179000B7FF681CC5B2802DF3DBFFF79FFF601C0D
:1017A000C4B2082CD1DB70BD8000002070B50446A7
:1017B00000251BE004F0800020B180210D48FFF7D8
:1017C0001BFD03E080210B48FFF714FDFFF71DFD13
:1017D00040210848FFF710FDFFF717FD402105489D
:1017E000FFF708FD6006040E681CC5B2082DE1DB9A
:1017F00070BD0000000C01402DE9FE4F07468846F1
:1018000092461C460197CDF80080082C02D14FF07B
:1018100006091FE02046E31704EB5373DB10214653
:101820004FEAE47C04EB5C7C4FEAEC0CA4EBCC0CC0
:10183000BCF1000F02D04FF0010C01E04FF0000CA2
:101840006344224604EBD27C4FEA6C0C03FB0CF39E
:1018500003F0FF09AAF12000C6B200255EE0082CC3
:1018600007D106EB4600304901EB400010F805B007
:101870001DE00C2C07D106EB46002C4901EB800043
:1018800010F805B013E0102C05D1294800EB061024
:1018900010F805B00BE0182C07D106EBC60025495F
:1018A00001EB800010F805B001E0BDE8FE8F0020DC
:1018B00002901CE00BF0010028B1414638460C9A1A
:1018C000FFF7B6FE09E00C9808B9012000E00020FF
:1018D000024641463846FFF7ABFE4FEA6B0B08F174
:1018E000010000F0FF080298401CC0B2029002986C
:1018F0000828DFDB781CC7B2082C0BD004EBD471AE
:101900004A100199791A8A4204D1019F009808303F
:10191000C0B20090DDF80080681CC5B24D459EDB6A
:10192000FFF710FF00BFC0E78C500008B45200085A
:1019300028570008185D00082DE9FC4F0746884627
:1019400016461C46BB46CDF804802046E21704EB41
:101950005272D2102146E31704EB5373DB10A4EB51
:10196000C3030BB1012300E000231A44624392B287
:101970000092002555E0102C05D12C4800EB4610B4
:1019800010F805A01BE0182C07D106EBC60028496B
:1019900001EBC00010F805A011E0202C05D125486E
:1019A00000EBC61010F805A009E0402C05D1224834
:1019B00000EB462010F805A001E0BDE8FC8F4FF0D9
:1019C00000091CE00AF0010028B1414638460B9A94
:1019D000FFF72EFE09E00B9808B9012000E0002077
:1019E000024641463846FFF723FE4FEA6A0A08F1ED
:1019F000010000F0FF0809F1010000F0FF09B9F152
:101A0000080FDFDB781CC7B2A7EB0B00A04204D1A4
:101A10005F4601980830C0B20190DDF80480681C70
:101A200085B200988542A6DB00BFC6E7746A00084D
:101A3000746E0008BC6E00083C6F00082DE9FF4F73
:101A400083B0064691461F46DDE9104A4FF0000B71
:101A5000082C01D14FF0020B002532E0781B401E0C
:101A6000C1B20A20FFF762FEB9FBF0F00A21B0FB19
:101A7000F1F201FB1208B8F1000F0FD104EBD471A1
:101A80000BEB610101FB0561C8B223463022CDF8A2
:101A900000A002940499FFF7AFFE10E004EBD471AC
:101AA0000BEB610101FB0561C8B208F13001CAB25C
:101AB0002346CDF800A002940499FFF79DFE681C10
:101AC000C5B2BD42CADBFFF73DFE07B0BDE8F08FEF
:101AD0002DE9F84306460F4614461D46DDF82080E2
:101AE00013E0CDF8008022782B4639463046FFF7C8
:101AF00083FE082D02D1B01DC6B205E0284605EBD5
:101B0000D07106EB6101CEB2641C2078202802DB84
:101B100020787E28E5DDFFF715FEBDE8F88370B577
:101B200005460C46FFF7C0FD7820FFF73FFEFFF7A4
:101B3000E7FD1CB14020FFF739FE02E00020FFF76F
:101B400035FEFFF7DDFD2846FFF730FEFFF7D8FD35
:101B5000FFF7C4FD70BD08B5012010230022114617
:101B600000901046FFF7E8FE0120102302460021F6
:101B700000901846FFF7E0FE012010233A220021D2
:101B800000902020FFF738FE012010230222194682
:101B900000900020FFF7D0FE0120102303221946F9
:101BA00000901846FFF7C8FE012010233A2219467C
:101BB00000902020FFF720FE08BD38B50446012C18
:101BC0001FD110233E22002100900846FFF714FE8B
:101BD000012010232022194600900020FFF70CFE60
:101BE000012010232022114600900020FFF704FE60
:101BF000012010232022302100900020FFF7FCFD5F
:101C000000BF00BF38BD08B50120102317220021F6
:101C100000901846FFF790FE0120102318220021A3
:101C200000902020FFF788FE0120102319220021B8
:101C300000903020FFF780FE012010233A2200217F
:101C400000904020FFF7D8FD08BD000038B50446DD
:101C50003F480078012806D002280DD0032814D070
:101C6000042824D11AE00120102320220021009012
:101C70000846FFF7C1FD1BE0012010232022194672
:101C800000900020FFF7B8FD12E001201023202271
:101C9000114600900020FFF7AFFD09E0012010235E
:101CA0002022302100900020FFF7A6FD00E000BFB9
:101CB00000BF012C02D0022C42D120E001201023D1
:101CC0003E22002100900846FFF796FD01201023D8
:101CD0002022194600900020FFF78EFD01201023DE
:101CE0002022114600900020FFF786FD01201023DE
:101CF0002022302100900020FFF77EFD21E001200E
:101D000010232022002100900846FFF775FD0120D6
:101D100010233E22194600900020FFF76DFD0120A0
:101D200010232022114600900020FFF765FD0120BE
:101D300010232022302100900020FFF75DFD00E0FD
:101D400000BF00BF02480470FFF7FCFC38BD000074
:101D50000900002008B50120102300221146009040
:101D60001846FFF7E9FD01201023024600210090EC
:101D70002020FFF7E1FD0120102311220021009017
:101D80003020FFF7D9FD01201023122200210090FE
:101D90004020FFF7D1FD012010233A2200210090BE
:101DA0005020FFF729FD08BD2DE9F0410024002552
:101DB0000026FEF731FE044629492046FEF72AFA9E
:101DC0002849486048682849FEF71AFC01D20020DB
:101DD00001E0244840682349486048682049FEF7EC
:101DE00019FC01D21E4801E01E4840681D494860A8
:101DF000FEF712FE05461A492846FEF70BFA06467C
:101E00001A493046FEF738FA07461949FEF702FA32
:101E10001449886088684FF07C51FEF7F1FB01D2CD
:101E2000002001E00F4880680E49886088681149E9
:101E3000FEF7F0FB01D20F4801E00A48806809492B
:101E4000886088680A49FEF717FA0746054841681E
:101E50003846FEF7DFF90349C860BDE8F0810000AD
:101E60000000A04000050020CDCCCC3D000020416A
:101E700000007A44000048427047000001460020FC
:101E8000034A506820F44040084350607047000007
:101E90000010024029B1064A52690243044B5A61BC
:101EA00004E0034A52698243014B5A6170470000C3
:101EB0000010024029B1064AD2690243044BDA619C
:101EC00004E0034AD2698243014BDA6170470000A3
:101ED0000010024029B1064A92690243044B9A61FC
:101EE00004E0034A92698243014B9A617047000003
:101EF00000100240704700001CB500F035F800F0FB
:101F00006DFBFFF728FE01201023154A00210090E9
:101F10002820FFF7DDFD01201021CDE90010114838
:101F2000012302682820FFF789FD012010232E22BB
:101F3000194600903020FFF75FFC01201021CDE909
:101F400000100848022342683820FFF777FD01207F
:101F500010235622194600904820FFF74DFC1CBD67
:101F6000370000202005002070B500F061FD044618
:101F70002F48007820B1012812D0022838D119E06A
:101F80002C480068201AB0F5C87F08D9FEF74EFF2C
:101F9000294804600120264908702648046027E08B
:101FA00025480068201AB0F5C87F02D902202049D0
:101FB00008701DE0FEF78AFE204908800846B0F947
:101FC0000000FEF7B0FA05461D49FEF755F91D4918
:101FD000086000F003FB1C48C3691CA182691D480E
:101FE00000F07AFB1348046000201149087000BF1C
:101FF00000BF1948007810B1012816D10CE00D4837
:102000008069201AC82806D9FFF7CEFE09488461E6
:1020100001201149087008E006488069201A32281A
:1020200002D900200C49087000BF00BF70BD00003D
:1020300047000020480500204C00002050000020F0
:1020400000002041000500202005002025642E25E9
:1020500064430000370000204800002010B50C4801
:102060000078022810D1002009490870094800783A
:10207000401C0849087008460078022804DDFFF774
:10208000BFFA0120034908700248007810BD000023
:1020900031000020060000200B480078022810D1F3
:1020A0000A48007868B90020074908700848007895
:1020B000401C0749087008460078032801DD01200C
:1020C00008700348007870473100002003000020AA
:1020D0000700002010B500F001F810BD0CB500207D
:1020E000019000903348006840F480303149086026
:1020F00000BF3048006800F4003000900198401C98
:102100000190009818B90198B0F5A06FF1D1294855
:10211000006800F4003010B10120009001E00020C0
:1021200000900098012843D12348006840F0100037
:10213000214908600846006820F00300086008464E
:10214000006840F0020008601A4840681949486079
:102150000846406848600846406840F4806048602F
:102160000846406820F47C1048600846406840F407
:10217000E81048600846006840F08070086000BFC2
:102180000C48006800F000700028F9D00948406849
:1021900020F00300074948600846406840F002000C
:1021A000486000BF0348406800F00C000828F9D1DF
:1021B0000CBD000000100240002002402DE9FC5F31
:1021C0001F490868FEF7BDF90546012010210223CA
:1021D0002A46CDE9001000215A20FFF72FFC1849AC
:1021E0004868FEF7AEF9C4B22046FEF7A5F90190A3
:1021F000134841680198FEF70AF882461149FEF734
:1022000009F88146FEF7E9F9074600220E4BFEF772
:1022100071F80546FEF7C8F900F0FF0B0849886819
:10222000FEF78FF905460120102103232A46CDE948
:10223000001020215A20FFF701FCBDE8FC9F0000A0
:1022400014050020000020410000E03F042808D1D0
:102250004FF0E021096941F004014FF0E0221161E3
:1022600007E04FF0E021096921F004014FF0E0227E
:10227000116170477047000010B50948006840F0D0
:1022800001000749086008464068064908400449BB
:102290004860FFF71FFF4FF000600349086010BD62
:1022A000001002400000FFF808ED00E010B5012129
:1022B000880700F0A3F838B1FEF7B0FF00F0BEFBCE
:1022C0000121880700F08BF810BD7FB504460D464C
:1022D00001210846FFF7EEFD0020ADF80A00ADF839
:1022E0000600ADF80850ADF804408DF80C0001A9C7
:1022F0004FF0804000F09CF801221146900700F05A
:102300008EF81C208DF8000001208DF803008DF858
:10231000010002208DF802006846FFF72FF9012125
:10232000880700F05FF87FBD10B50121054800F077
:1023300065F828B10121034800F051F801F082FE50
:1023400010BD0000000400407FB505460C464FF468
:10235000A060FFF74BF91D208DF80C0000208DF8D0
:102360000D0003208DF80E0001208DF80F0003A84A
:10237000FFF704F901210220FFF79CFDADF804509E
:10238000ADF800400020ADF80600ADF802008DF871
:1023900008006946084800F04BF80121064800F0A3
:1023A0001BF801221146044800F039F801210248C7
:1023B00000F018F87FBD00000004004010B50121B6
:1023C000044800F01BF818B10121024800F007F89A
:1023D00010BD000000080040CA4302827047CA4393
:1023E0000282704721B1028842F00102028004E0BB
:1023F00002884FF6FE731A400280704730B50246DD
:10240000002000230024158A05EA0103958905EAC6
:10241000010413B10CB1012000E0002030BD1AB15D
:1024200083890B43838102E083898B4383817047D7
:10243000002202881D4B98420ED01D4B98420BD0B3
:10244000B0F1804F08D01B4B984205D01A4B9842F0
:1024500002D01A4B984204D14FF68F731A404B8822
:102460001A43174B984207D0164B984204D04FF6A8
:10247000FF431A40CB881A4302808B8883850B88E0
:1024800003850A4B98420BD0094B984208D00E4B5B
:10249000984205D00D4B984202D00D4B984201D185
:1024A0000B7A03860123838270470000002C0140D1
:1024B000003401400004004000080040000C0040CF
:1024C0000010004000140040004001400044014062
:1024D0000048014008B540F22551094800F04AF88B
:1024E00068B140F22551064800F028F8044800F091
:1024F0006BF8C0B200900121684601F0EDFC08BD08
:102500000044004010B540F225510A4800F032F86E
:1025100078B1084800F058F8C4B2312C03D101203A
:10252000054908703524322C03D100200249087077
:10253000352410BD004800400100002010B50022E5
:10254000002340F66A14A14200D100BF0A12012400
:102550009440A3B2DC43048010BD02460020B1F5D4
:10256000007F00D100BF13880B400BB1012000E0B9
:102570000020704770B5024600240023002500208B
:1025800040F66A16B14200D100BFC1F3421501F016
:102590001F03012606FA03F3012D02D19689334069
:1025A00006E0022D02D1168A334001E0968A3340BC
:1025B0000C12012606FA04F41688344013B10CB14B
:1025C000012000E0002070BD01468888C0F30800AB
:1025D0007047C1F308028280704700002DE9F04186
:1025E0002E4E2F4F2F4908682F49FDF70DFE8046CC
:1025F0003146FDF70FFE05464FF07E51FDF7B2FD67
:1026000004462849C8682146FDF704FE804639463D
:10261000FDF732FE05462549FDF7FCFD214908611D
:1026200008690021FDF7ECFF01D2002001E01D4800
:1026300000691C49086108691C49FDF7EBFF01D2DC
:102640001A4801E01748006916490861184B1A1F1B
:1026500048680221FEF704FD1249154B08331A1F82
:1026600088680221FEF7FCFC0E49114B10331A1F3B
:10267000C8680321FEF7F4FC0A490D4B18331A1FF2
:1026800008680121FEF7ECFC0649094B20331A1FAC
:1026900008690121FEF7E4FCBDE8F081B37B72BB61
:1026A00066666640000500200000C8410000C84280
:1026B0002405002000BFFEE70FB4054B10B503A9A9
:1026C000044A029800F02CF810BC5DF814FB0000DE
:1026D000412B0008780000200FB4084B10B504A966
:1026E00002AA039800F01CF8044602A9002000F09A
:1026F00077F9204610BC5DF814FB0000E1290008C2
:1027000002E008C8121F08C1002AFAD170477047BA
:10271000002001E001C1121F002AFBD17047000018
:102720002DE9FF4F8DB09B460F460446002606E07C
:1027300025280BD05A460F999047641C761C2078A8
:102740000028F5D111B03046BDE8F08F0025A8462D
:102750000122984900E0054314F8013F203B02FAAA
:1027600003F00842F7D120782E2817D114F8010F72
:1027700045F004052A280ED06FF02F022078A0F132
:10278000300109290AD808EB880102EB410100EB6E
:102790000108641CF2E757F8048B641C20786C284D
:1027A0000DD004DC4C2812D06A2811D104E0742822
:1027B0000DD07A280CD10AE045F4001507E06178C5
:1027C00045F48015814202D1641C05F58015641C16
:1027D0002278692A45D008DC002AB3D0582A69D06B
:1027E000632A10D0642A08D13BE0702A67D0732A8C
:1027F00013D0752A5CD0782A5CD010465A460F99BF
:102800009047761CD3E017F8040B8DF800000020E9
:102810008DF80100E946012003E057F8049B4FF0D2
:10282000FF3069074FF0000501D40AE06D1C4545F3
:102830000DDA8542FADB19F805100029F6D106E019
:102840006D1C8542FCDB19F805100029F8D12E44D7
:1028500004E019F8010B5A460F9990476D1EF8D203
:10286000A5E00A200021CDE90801C5F302500228A5
:102870000DD001CFC117031E71F100030DDA4FF027
:10288000000CD0EB0C006CEB01012D2308E0FF1DC8
:1028900027F00707F7E80201EDE72B0504D52B2306
:1028A0008DF8283001233BE0EB0739D02023F7E7F0
:1028B0000A2000E010200021CDE9080107E01020E7
:1028C000002145F00405CDE908014FF00808C5F3E3
:1028D000025002280FD001CF00214FF0000A2B0731
:1028E0001FD5702A0DD0DDE908C38CF0100C5CEA0E
:1028F000030C0CD015E0FF1D27F00707F7E80201D5
:10290000EBE740228DF828204FF0010A0BE050EA57
:10291000010306D030238DF828308DF829200223BA
:102920009A46582A04D024A20DF120090B9209E0FE
:1029300026A2F9E7DDE90823FDF776FE0B9B9B5CF9
:1029400009F8013D50EA0102F4D1ADEB0900203055
:102950000890680701D44FF001080899884502DD06
:10296000A8EB010000E000208046002506E00AA850
:102970005A46405D0F9990476D1C761C5545F6DB15
:1029800004E030205A460F999047761CB8F10001B8
:10299000A8F10108F5DC05E019F8010B5A460F997A
:1029A0009047761C0899481E08900029F4DC641CA6
:1029B000C5E600000928010030313233343536379E
:1029C000383961626364656600000000303132337B
:1029D000343536373839414243444546000000001B
:1029E0000A68531C0B6010707047024600210020DB
:1029F000137803F0010303B1491C1378C3F34003B8
:102A000003B1491C1378C3F3800303B1491C137845
:102A1000C3F3C00303B1491C09B9002007E001F06A
:102A200007030BB9C80802E0012303EBD10070478C
:102A30000148006870470000580000200248006804
:102A4000401C0149086070475800002010B504463A
:102A50006FF00400FFF7FAFBE11704EB5171C1F3CB
:102A6000C701094A11701046007800EB4001C1EB24
:102A7000C0104FF6FF7101EAC00004490880002031
:102A80000349086010BD00005400002056000020DB
:102A90005800002001460D4A12884A434FF0E023B7
:102AA0005A6100229A6101221A6100BF4FF0E022B0
:102AB000106900F001021AB100F48032002AF5D04A
:102AC00000224FF0E0231A619A61704756000020FF
:102AD00001460D4A12784A434FF0E0235A61002222
:102AE0009A6101221A6100BF4FF0E022106900F0E4
:102AF00001021AB100F48032002AF5D000224FF012
:102B0000E0231A619A6170475400002001B581B03A
:102B100000200090694601AA50780870107848702B
:102B2000BDF800000CBD0146080601F47F4240EAF2
:102B3000022001F47F0240EA122040EA116070474F
:102B400070B504460D46E1B20548FFF742FD00BFEF
:102B50000348008800F080000028F9D0204670BDAE
:102B60000038014010B5002821D0114B0022001F71
:102B7000196803E0814203D80A4649680029F9D15F
:102B800052B11368841A9C4204D100681844106042
:102B9000104602E0506000E0186039B102680B1A7C
:102BA000934203D10B681A4402604968416010BD2A
:102BB0007C000020024612B102F0070028B9082963
:102BC00001D8002070470120FCE702F00700C0F1A7
:102BD0000800884201D30020F4E70120F2E730B575
:102BE00002460B460021002400250AB9481E30BDCC
:102BF000002108E0545C581A401E155C5554581AC0
:102C0000401E1454491CB1EB530FF3D30020EEE7E0
:102C10002DE9F04104460D460027002604B11DB9F8
:102C20004FF0FF30BDE8F08100F094FB06462878B5
:102C30002178884209D0674890F8420120F00100CD
:102C4000401C644981F84201012768786178884214
:102C500009D0604890F8420120F00200801C5D49D4
:102C600081F842010127A878A178884209D0594803
:102C700090F8420120F00400001D564981F84201FD
:102C80000127D5F80300D4F80310884209D0514831
:102C900090F8420120F0080008304E4981F84201C6
:102CA0000127D5F80700D4F80710884209D0494811
:102CB00090F8420120F010001030464981F842019E
:102CC0000127D4F80B10D5F80B00FDF799FC09D0BB
:102CD000404890F8420120F0200020303D4981F822
:102CE00042010127D5F80F00D4F80F10884209D00F
:102CF000384890F8420120F040004030354981F8D2
:102D000042010127D4F81310D5F81300FDF778FC21
:102D100010D031480068301A41F27071884209D3EE
:102D20002C4890F8420120F080008030294981F839
:102D300042010127D4F81710D5F81700FDF760FC01
:102D400010D025480068301A41F27071884209D3CA
:102D5000204890F8430120F00100401C1D4981F8F3
:102D600043010127D4F81B10D5F81B00FDF748FCE0
:102D700010D019480068301A41F27071884209D3A6
:102D8000144890F8430120F00200801C114981F89A
:102D900043010127D4F81F10D5F81F00FDF730FCC0
:102DA00010D00D480068301A41F27071884209D382
:102DB000084890F8430120F00400001D054981F8FF
:102DC00043010127012F03D100F0C4FA0249086032
:102DD000384627E788050020680000202DE9FF5FBE
:102DE00005460C4616464FF00009C846002700204D
:102DF00000900190029003902888ADF800000DB17A
:102E000004B13EB967A0FFF757FC4FF0FF3004B0A4
:102E1000BDE8F09F02216846FFF7E1FEB0F1FF3FF9
:102E200005D16BA0FFF748FC4FF0FF30EFE7684695
:102E3000FFF7DBFD814609F1020007449DF8000021
:102E400000F0010098B111212278601C8154207893
:102E5000401C20704B46AA1C0121404601F038F965
:102E600008B1012000E00020307008F101089DF851
:102E70000000C0F3400098B112212278601C8154F8
:102E80002078401C20704B46AA1C0121404601F0CE
:102E90001FF908B1012000E00020707008F101085E
:102EA0009DF80000C0F3800098B113212278601CC7
:102EB00081542078401C20704B46AA1C01214046BA
:102EC00001F006F908B1012000E00020B07008F11F
:102ED00001089DF80000C0F3C00080B114212278E1
:102EE000601C81542078401C20704B46AA1C012194
:102EF000404601F0EDF8C6F8030008F101089DF81E
:102F00000000C0F3001090B115212278601C81549C
:102F10002078401C2070E95D8DF803107F1C9DF81F
:102F200003201421012001F035F9C6F807009DF8AF
:102F30000000C0F34010D8B116212278601C8154E3
:102F40002078401C2070E95D8DF804107F1C9DF8EE
:102F50000400FDF7F1FA8346FDF7F3FA8246524684
:102F60004FF07E514FF07C5001F01AF9C6F80B007B
:102F70009DF80000C0F3801090B117212278601CEA
:102F800081542078401C2070E95D8DF805107F1C6D
:102F90009DF805200A21052001F0FCF8C6F80F0075
:102FA000002034E767697A44617461506F696E7418
:102FB000324576656E74204572726F72202C2049FE
:102FC0006C6C6567616C20506172616D0A00000075
:102FD00067697A427974654F72646572457863688F
:102FE000616E6765204572726F720A002DE9F047C5
:102FF00088B005460F4690464FF000090026002491
:10300000002000900190029003908D48B0F842019A
:10301000ADF8000002216846FFF7E1FDA41C05B1F0
:103020003FB988A0FFF748FB4FF0FF3008B0BDE87C
:10303000F087834890F8420100F0010038B12B7806
:103040000DEB04020121304601F004F8761C7C48A7
:1030500090F84201C0F3400038B16B780DEB0402E8
:103060000121304600F0F6FF761C754890F84201C9
:10307000C0F3800038B1AB780DEB0402012130467B
:1030800000F0E8FF761C6E4890F84201C0F3C000E3
:1030900090B1D5F80300022805D376A0FFF70CFB0A
:1030A0004FF0FF30C2E7D5F803300DEB04020121E9
:1030B000304600F0CFFF761C16B94FF0000908E04B
:1030C00006F0070010B94FEAD60902E0012000EB34
:1030D000D609B9F1010F04D90DEB04004946FFF7F9
:1030E0007EFD4C44564890F84201C0F3001068B190
:1030F000D5F807201421012001F067F8C0B28DF83F
:1031000011009DF811100DF80410641C4C4890F843
:103110004201C0F3401078B1D5F80B204FF07E513A
:103120004FF07C5001F058F8C0B28DF812009DF8B5
:1031300012100DF80410641C414890F84201C0F3CD
:10314000801068B1D5F80F200A21052001F03DF864
:10315000C0B28DF813009DF813100DF80410641C14
:10316000374890F84201C00990B1D5F813200021EA
:103170004B4801F031F81FFA80FA5046FFF7C6FCC1
:10318000ADF814000DEB0400BDF814100180A41C70
:103190002B4890F8430100F0010090B1D5F81720BA
:1031A0000021404801F018F81FFA80FA5046FFF756
:1031B000ADFCADF816000DEB0400BDF81610018053
:1031C000A41C1F4890F84301C0F3400090B1D5F80B
:1031D0001B200021324800F0FFFF1FFA80FA504602
:1031E000FFF794FCADF818000DEB0400BDF81810C3
:1031F0000180A41C124890F84301C0F3800080B104
:10320000D5F81F200021284800F0E6FF8246FFF78E
:103210008AFCCDF81A000DEB0400DDF81A100160ED
:10322000241D07480021A0F84211C8F80040694653
:103230003846D8F80020FCF771FF0020F6E60000C1
:103240008805002067697A44617461506F696E7403
:1032500073325265706F727444617461204572728A
:103260006F72202C20496C6C6567616C2050617214
:10327000616D0A005B4552524F525D2076616C755C
:10328000656D6F6465204572726F72202C20496CE9
:103290006C6567616C204F766572737465700A00A7
:1032A000CDCCCC3D0AD7233C6F12833A70B505468E
:1032B00000F050F80446002622492846FFF7A8FCF3
:1032C000012814D11F4A273AA2F110012846FFF71E
:1032D0008DFE38B91C4800F5A271D0F85421142095
:1032E00000F034FE232229461648FCF717FF174842
:1032F000B4FBF0F100FB114000BB15480068A04290
:103300001CD0FF2202210F483938FCF719FF0D4A63
:10331000273AA2F110012846FFF768FE38B90A489B
:1033200000F5A271D0F85421142000F00FFE2322E2
:1033300029460448FCF7F2FE054804603046FFF7D2
:1033400011FC70BD0307002088050020C02709007C
:103350006C000020014800687047000064000020F5
:1033600010B5114890F8950001281BD10E4890F82F
:103370009400022811DAFFF7EDFF0B49D1F8DA10BB
:10338000401AC8280ED900F033FD074890F8940081
:10339000401C054981F8940004E04A210248943019
:1033A000FCF7D5FE10BD0000880500203EB50446A0
:1033B00000250CB9681E3EBD206800906068019031
:1033C0009DF80400401CC0B28DF804000520FFF7F2
:1033D0009DFBADF802000921684600F021FD8DF843
:1033E00008000921684601F0F9FD05462846E2E794
:1033F000FEB504460D4600260CB9701EFEBD68469B
:1034000000F03CF912208DF8040060798DF8050079
:103410000620FFF77BFBADF802008DF808500A216B
:10342000684600F0FDFC8DF809000A21684601F0AD
:10343000D5FD06463046E1E730B59DB0044600258F
:1034400014B9681E1DB030BD684600F017F902209F
:103450008DF8040060798DF805001CA103C9CDE941
:1034600002011DA103C9CDE904011EA103C9CDE9D3
:1034700008011FA103C9CDE9060100BF00BF00205C
:10348000CDF84A00CDF84E009DF851008DF851005E
:103490009DF8510040F002018DF851100020FFF717
:1034A00035FBADF848006F20FFF730FBADF80200A8
:1034B0007321684600F0B4FC8DF8720073216846F1
:1034C00001F08CFD05462846BCE700003030303066
:1034D00030303034000000003030303030303032A6
:1034E0000000000030333033303030300000000056
:1034F0003033303130313030000000002DE9FE4FE4
:1035000080460E4617464FF0000B00200290814681
:103510008246002534460090B8F1000F01D006B174
:103520001FB94FF0FF30BDE8FE8F404601F07AFC36
:103530001FFA80FABAF1000F02D14FF0FF30F2E724
:103540004FF0000966E0012201A9404601F0A7FC06
:103550008346BBF1000F5BD044480078FF281FD1A1
:103560009DF80400FF281BD14148007848B9FF208E
:103570002070607002203F49088001203C4908709B
:103580003DE03C480088042839DD3A480088A842DC
:1035900035D0FF20207060700220364908802EE070
:1035A00032480078FF2803D19DF80400552826D022
:1035B0002F480078012822D19DF804002D49098860
:1035C00060542C480088401C2A490880084600881E
:1035D000042814DD0094009C6088FFF797FA001D12
:1035E00085B2422D01D2042D04DC00202049087050
:1035F000204908801F480088A84200D10CE09DF8AF
:1036000004001A4908701C480078401C1A490870C8
:1036100009F10109D14596DB00BF1648008804284E
:1036200022DD14480088A8421ED112480188204695
:1036300000F0F6FB02900F480088401E215C0298C3
:1036400081420AD13D80002009490870094908805B
:10365000094908700549087065E7002004490870A9
:1036600004490880801E5EE701205CE774000020AA
:1036700070000020720000207500002010B5044684
:103680002CB907A0FFF718F84FF0FF3010BD00204D
:1036900020606060FF20207060700020F6E700006E
:1036A0004552523A2067697A50726F746F636F6C3B
:1036B00048656164496E6974206865616420697356
:1036C00020656D707479200A000000002DE9F04F2C
:1036D000A3B006468B4617469946002022908246A4
:1036E0008046002501ACBBF1000F06D131A0FEF7EA
:1036F000E3FF681E23B0BDE8F08FB9F1010F06D1DA
:1037000096F8088008F10600384485B201E0781D7B
:1037100085B22B46424639462CA0FEF7CDFFFF204E
:1037200004F8010B04F8010B281204F8010B04F84B
:10373000015B3079401C04F8010B707904F8010B2F
:10374000002004F8010B04F8019B4FF0080AB9F1BE
:10375000010F0DD104F8018B0AF1010A01A901EB57
:103760000A00424606F10901FCF7D8FCC244444471
:1037700037B101A901EB0A003A465946FCF7CEFCE5
:10378000291D01A800F04CFB0146E81C01AA1154B8
:10379000291D01A801F022FC22902298002806DAB7
:1037A00014A02299FEF788FF6FF00100A2E7002025
:1037B000A0E700005B4552525D20206461746120E7
:1037C0004973204E756C6C200A0000006C656E20F9
:1037D0003D202564202C20734469644C656E203D97
:1037E000202564202C646174615F6C656E203D202F
:1037F00025640A00756172742077726974652065AA
:1038000072726F72202564200A0000002DE9F047D3
:1038100080460C4617461D46089E94F800900CB151
:1038200005B136B93AA0FEF747FF4FF0FF30BDE8CB
:10383000F087B8F1000F69D119214148FCF787FCE6
:10384000B9F1050F40D0B9F1110F03D0B9F1120F42
:103850005AD110E03BA0FEF72FFF394A7A3238499F
:10386000601CFFF7BBFA01203549DE3908700025DE
:103870000020306049E03CA0FEF71EFF3048DE38F3
:10388000B4F80110A0F84211022100F5A170FFF771
:10389000A6F92B4A7632A2F1100101F13700FFF7A9
:1038A000A5FB68B92648DE3800F5A271D0F854218E
:1038B000681CFCF733FC132028701120306002E0F4
:1038C0004FF0FF30B3E720E07A1E611C1C489B38A4
:1038D000FCF724FC781E1A49DE39C1F88800102153
:1038E0001748DE3890F8DE20DF308154DF3890F85A
:1038F000DE00401C1249DE3981F8DE00032008702A
:1039000000250020306000E000BF00BF00208EE7EF
:1039100067697A50726F746F636F6C497373756502
:103920006450726F63657373204572726F72202CDE
:1039300020496C6C6567616C20506172616D0A0092
:1039400066060020414354494F4E5F454C4F4E4759
:103950004154455F434F4E54524F4C5F4445564986
:103960004345200A00000000414354494F4E5F4543
:103970004C4F4E474154455F524541445F44455684
:103980005F535441545553200A00000070B504465B
:1039900025462CB90EA0FEF78FFE4FF0FF3070BD0C
:1039A000412205F108010E48FCF7B8FB0F210D4834
:1039B00090F8292100F5957081540A4890F8290162
:1039C000401C084981F82901052008700020E6E71D
:1039D0004E545020697320656D707479200A000080
:1039E000340700208805002010B504462CB9B8A083
:1039F000FEF762FE4FF0FF3010BD2089FFF786F81A
:103A00002081BF480078C0F38000217AC1F3800193
:103A1000884256D0207AC0F38000002829D0207A2E
:103A200000F0010078B10021B64890F8F720F83096
:103A30008154F83890F8F700401CB24981F8F7003B
:103A4000B1A0FEF739FE207AC0F34000002838D03C
:103A50000121AC4890F8F720F8308154F83890F8FC
:103A6000F700401CA74981F8F700AFA0FEF724FE3D
:103A700027E0207A00F0010078B10021A14890F8F9
:103A8000F720F8308154F83890F8F700401C9D4931
:103A900081F8F7009CA0FEF70FFE207AC0F34000EB
:103AA00078B10221974890F8F720F8308154F8381F
:103AB00090F8F700401C934981F8F700A1A0FEF7A9
:103AC000FBFD8F480078C0F3C000217AC1F3C0012C
:103AD000884226D0207AC1088948007861F3C30063
:103AE00087490870207AC0F3C00068B10321854877
:103AF00090F8F720F8308154F83890F8F700401C1F
:103B0000804981F8F7000CE004217E4890F8F72006
:103B1000F8308154F83890F8F700401C794981F862
:103B2000F70077480078C0F30010217AC1F3001144
:103B3000884226D0207A01097148007861F3041088
:103B40006F490870207AC0F3001068B105216D48F4
:103B500090F8F720F8308154F83890F8F700401CBE
:103B6000684981F8F7000CE00621664890F8F720D4
:103B7000F8308154F83890F8F700401C614981F81A
:103B8000F7005F480078C0F34010217AC1F340117C
:103B9000884226D0207A41095948007861F34510BF
:103BA00057490870207AC0F3401068B10721554882
:103BB00090F8F720F8308154F83890F8F700401C5E
:103BC000504981F8F7000CE008214E4890F8F720A2
:103BD000F8308154F83890F8F700401C494981F8D2
:103BE000F70047484078C0F3C001607AC0F3C000D6
:103BF000814226D0607AC1084148407861F3C30011
:103C00003F494870607AC0F3C00068B10B213D485D
:103C100090F8F720F8308154F83890F8F700401CFD
:103C2000384981F8F7000CE00C21364890F8F7206D
:103C3000F8308154F83890F8F700401C314981F889
:103C4000F7002F484078C0F30011607AC0F30010ED
:103C5000814226D0607A01092948407861F3041036
:103C600027494870607AC0F3001068B109212548DF
:103C700090F8F720F8308154F83890F8F700401C9D
:103C8000204981F8F7000CE00A211E4890F8F7203F
:103C9000F8308154F83890F8F700401C194981F841
:103CA000F7000D21174890F8F720F8308154F838C4
:103CB00090F8F700401C134981F8F700607A00F093
:103CC000070081F89E0102200870002094E60000A1
:103CD00067697A50726F746F636F6C4D6F64756C47
:103CE00065537461747573204572726F72202C2055
:103CF000496C6C6567616C20506172616D0A0000EF
:103D000076000020880500204F6E426F6172646962
:103D10006E673A20536F66744150206F722057656A
:103D200062206D6F64650A004F6E426F6172646954
:103D30006E673A204169724C696E6B206D6F6465E5
:103D40000A0000004F6E426F617264696E673A202C
:103D500053746174696F6E206D6F64650A000000B2
:103D600070B50446254614B94FF0FF3070BD1748B2
:103D7000A9680162A9898184A97B80F82610A0F531
:103D8000C070D5F80F10C0F8A8110146B1F8A00115
:103D9000FEF7BCFE0E49A1F8A001D1F8A801FEF77C
:103DA000C2FE0B49C1F8A8010E21094890F8102164
:103DB00000F211108154064890F81001401C04498B
:103DC00081F81001042008700020CFE708070020C8
:103DD0008805002010B5FFF7BDFA044600BFFFF7C5
:103DE000B9FA001BB0F5167FF9D901F003F810BD40
:103DF00010B50024094890F8950000B910BD074897
:103E0000B0F8D810963001F0E9F80446FFF7A2FAAE
:103E10000249C1F8DA0000BFF0E700008805002081
:103E200010B502460024002302B109B9002010BDDC
:103E3000022303E0D05C2044C4B25B1C481E9842BD
:103E4000F8D82046F3E7000070B504460D462CB9BB
:103E50000FA0FEF731FC4FF0FF3070BD4A21124831
:103E6000FCF775F92A4621460F48801CFCF756F9E5
:103E70000D489438A0F8D850012180F89510FFF72C
:103E800069FA09499439C1F8DA000020E5E7000031
:103E90004552523A206461746120697320656D70E7
:103EA0007479200A000000001C06002070B504464A
:103EB000084D14B94FF0FF3070BD2879401C2179AE
:103EC000884204D14A210348801EFCF740F90020B3
:103ED000F2E700001E06002070B504460D460026DD
:103EE00024B90AA0FEF7E8FB701E70BD2A462146E1
:103EF0000E4801F025F80646AE4205D00CA0FEF7AC
:103F0000DBFB4FF0FF30F0E73046EEE74552523A28
:103F10002067697A50757444617461206275662007
:103F2000697320656D707479200A0000780700209D
:103F30004552523A204661696C656420746F207264
:103F4000625772697465200A000000002DE9F04391
:103F500091B006460F4690464FF000096C4608F1B6
:103F6000060085B23FB925A0FEF7A6FB4FF0FF3053
:103F700011B0BDE8F083FF2004F8010B04F8010B39
:103F8000281204F8010B04F8015B052004F8010B6A
:103F9000244890F88C10D0F88C00401C214AC2F8BC
:103FA0008C0004F8011B002004F8010B04F8010B3D
:103FB00004F8016B424639460DF10900FCF7AEF8F2
:103FC000291D6846FFF72CFF0146E81C0DF800107C
:103FD000291D684601F002F88146B9F1000F06DAA2
:103FE000494611A0FEF768FB6FF00100C0E7291DEC
:103FF0006846FFF729FF0020BAE7000067697A5298
:1040000065706F727444617461204572726F7220C2
:104010002C20496C6C6567616C20506172616D0A7F
:1040200000000000880500204552523A2075617258
:1040300074207772697465206572726F72202564CE
:10404000200A000002480068401C014908607047CF
:10405000640000202DE9F0470546884614461E46B8
:104060004FF00009CA460027002314B9581EBDE8C6
:10407000F087EB0841462846FEF79CFD07463FB90E
:10408000E05C05F0070106FA01F10843E0541DE089
:10409000012F1BD1F0B205F00701C1F1080140FA70
:1040A00001F905F00700C0F10801FF20084100EA0E
:1040B000060A581C205C40EA0900591C6054E05C68
:1040C00005F007010AFA01F10843E0540020CEE7A9
:1040D0002DE9F04F8FB004460F4690461D4600264E
:1040E000B246B146B34600200E90B8F1000F00D0A2
:1040F00025B94FF0FF300FB0BDE8F08F4FEAD4097B
:104100002A46414601A8FCF709F8012D09D929469C
:1041100001A8FEF764FDB0F1FF3F02D14FF0FF3080
:10412000E9E739462046FEF745FD8246BAF1000F21
:104130000CD101A810F8090004F007010841C7F1EB
:104140000802FF2111410840064321E0BAF1010FA6
:104150001ED101A909F10100085C04F00701C1F1B9
:104160000801791AC1F10802FF21114100EA010B8F
:1041700001A810F8090004F0070108410E9004F0AE
:104180000700C0F108010BFA01F006430E98064340
:104190003046B0E710B50346002002FB031010BD07
:1041A0002DE9F04704460E46154600272846FCF741
:1041B000C3F981462146FCF72DF880463146FBF7CE
:1041C000D1FF07463846BDE8F08710B5034600200A
:1041D000541AB4FBF3F010BD2DE9F04704460E4627
:1041E0001546002731462846FCF70EF88146214641
:1041F000FCF742F88046FCF7A4F907463846BDE8CC
:10420000F08700002DE9FE4F06460F464FF00008EC
:104210003C4606B11FB94FF0FF30BDE8FE8F4FF0AE
:1042200000083DE1701C10F8080018287ED2DFE875
:1042300000F0F2F1F07D7DEFEEEDEC7D7D7D7DEB2C
:10424000EAE9E80C1F2D3B6995F32078974908703F
:104250000846017896A0FEF72FFA944800780128C6
:1042600002D19949487002E000209749487012E154
:1042700060788E49487008464078012802D19249FA
:10428000087002E000209049087004E1A078874996
:10429000887008468078012802D18B49887002E036
:1042A000002089498870F6E0D4F803007F49C1F8FE
:1042B00003000846D0F8030010B101281FD10CE01C
:1042C0000120824908700846007881490870FDF78E
:1042D00097F901207F49087012E002207B4908709D
:1042E000084600787A490870FDF78AF90120794973
:1042F00008700020744908704870887000E000BFA2
:1043000000BFC8E0D4F807006849C1F807000846B4
:10431000C579142D00DA1425322D00DD322528460A
:10432000FCF70AF96C490860886800E0B2E0FCF725
:1043300008F91FFA80F968494868FCF702F91FFA82
:1043400080FA65490868FCF7FCF81FFA80FB4B46C9
:10435000524659466148FCF74FFE9CE0D4F80B00EA
:104360005249C1F80B000846D0F80B504FF07E516F
:104370002846FCF745F901D24FF07E5558492846AA
:10438000FCF748F900D2564D4FF080412846FBF724
:1043900041FF4FF07C510090FBF7E4FE0190FCF7E9
:1043A000D0F880B20290FCF7C7F883464FF0804106
:1043B000FBF762FF0546484845603C48C0F80B5093
:1043C0004FEA15491FFA85FA43490868FCF7B9F81E
:1043D0001FFA80FB53464A4659464048FCF70CFEFC
:1043E000FCF7FEFD3C498868FCF7ABF81FFA80FB40
:1043F00059463A48801DFCF7A7FDFCF79BFD4AE0B3
:104400000AE044E045E043E040E03EE03CE03AE0E2
:1044100038E036E034E032E0D4F80F002349C1F848
:104420000F000846B0F80F0085B20A2D00DA0A2501
:10443000462D00DD4625A81C052190FBF1F000EB80
:10444000800085B22846FCF777F8234988608868A1
:10445000FCF777F81FFA80F91F494868FCF771F8F4
:104460001FFA80FA1C490868FCF76BF81FFA80FBFA
:104470004B46524659461948FCF7BEFD0BE00AE090
:1044800009E008E007E006E005E004E003E002E000
:1044900001E000E000BF00BF08F1010000F0FF08EC
:1044A000307840453FF7BEAE0020B6E664050020F8
:1044B0004576743A204556454E545F6265657020D6
:1044C0002564200A000000003400002000000020C5
:1044D00008000020060000201405002000F001085C
:1044E0000000A0402DE9F041A4B0054600260020C0
:1044F000029001900024804600271DB9401E24B080
:10450000BDE8F081FEF72CFF02AA7C497C48FEF74B
:10451000F5FF0646002E6ED1784C20790F284FD03B
:104520000ADC0E2873D2DFE800F07216721A72727B
:10453000433872724472453C182852D006DC112868
:1045400047D0142846D0162861D134E0222854D010
:104550002A285CD130E02046FEF76EFF5FE0E2796A
:10456000A17968A0FEF7A8F801A8009007F109005A
:10457000BDF808301A1A61480830C11903AB40462B
:10458000FFF744F940B9E37903A92046019AFFF700
:104590009DF860A0FEF790F841E02046FEF706FF88
:1045A0003DE02046FEF702FF2046FFF71DFA36E009
:1045B00000BF00BF00BF00BF2046FFF777FC2EE022
:1045C0002046FEF7F3FE56A0FEF776F8FFF702FC52
:1045D00025E024E02046FFF769FC56A0FEF76CF8C2
:1045E0001DE02046FFF762FC2046FFF7B9FB59A00B
:1045F000FEF762F813E013E009E02046FFF756FCEF
:104600002046FFF7C3F959A0FEF756F807E002214C
:104610002046FEF7EDFE5CA0FEF74EF800BF0DE071
:1046200016F1020F0AD1354C01212046FEF7E0FEBB
:104630005BA0FEF741F86FF0010060E72F48401ED5
:104640000078062853D2DFE800F0520314253141E8
:1046500000202A49491E0870232201F5AC71A1F1FE
:104660007A00FFF7CFFD19212448DD30FBF76FFDFD
:104670003EE000202149491E0870012201F5CF715A
:10468000A1F1A700FFF7BEFD19211C48F630FBF78A
:104690005EFD2DE000201949491E0870084643318F
:1046A000D0F88820DE30FFF7ADFD21E0002013496F
:1046B000491E08700C2201F5D071A1F19000FFF79E
:1046C000A1FD19213C48FBF742FD11E000200B49F8
:1046D000491E0870412201F5D671A1F18300FFF750
:1046E00091FD412134481930FBF731FD00E000BF56
:1046F00000BF2846FEF7DAFD002000E7890500200C
:1047000078070020666C6167202578202578200ACC
:104710000000000041636B44617461203A200A008C
:104720007265706F72743A4D4355207265626F6F97
:1047300074210A0041636B2050524F445543544941
:104740004F4E5F4D4F44452073756363657373200F
:104750000A00000041636B204745545F55545420C4
:1047600073756363657373200A00000041636B20F7
:104770004745545F4D6F64756C6520737563636561
:104780007373200A000000004552523A20636D64A2
:1047900020636F6465206572726F72210A000000E9
:1047A0004552523A20636865636B2073756D2065CE
:1047B00072726F72210A00009806002010B58420E2
:1047C000064908600648C860084600F05DFB4FF4E3
:1047D000F8710448FBF7BBFC10BD0000780700200F
:1047E000880700208805002030B587B005460024E2
:1047F000062D7CD2DFE805F003305F90BDEA01A80A
:10480000FEF73CFF0B208DF808008B4890F88C10C9
:10481000D0F88C00401C884AC2F88C00C8B28DF8D1
:1048200009000520FEF772F9ADF80600092101A87C
:10483000FFF7F6FA8DF80C00092101A800F0CEFB75
:104840000446002C03DA21467CA0FDF735FF092140
:1048500001A8FFF7F9FAEAE004A8FEF70FFF092024
:104860008DF81400744890F88C10D0F88C00401C1F
:10487000714AC2F88C00C8B28DF815008DF8185036
:104880000620FEF743F9ADF812000A2104A8FFF74D
:10489000C7FA8DF819000A2104A800F09FFB04460E
:1048A000002C03DA214665A0FDF706FF0A2104A8C3
:1048B000FFF7CAFABBE004A8FEF7E0FE09208DF876
:1048C00014005D4890F88C10D0F88C00401C5A4AB7
:1048D000C2F88C00C8B28DF815008DF8185006206B
:1048E000FEF714F9ADF812000A2104A800E09AE0DE
:1048F000FFF796FA8DF819000A2104A800F06EFB64
:104900000446002C03DA21464CA0FDF7D5FE0A210F
:1049100004A8FFF799FA8AE001A8FEF7AFFE13207A
:104920008DF80800444890F88C10D0F88C00401C9A
:10493000414AC2F88C00C8B28DF809000520FEF784
:10494000E5F8ADF80600092101A8FFF769FA8DF82E
:104950000C00092101A800F041FB0446002C03DAF9
:10496000214636A0FDF7A8FE092101A8FFF76CFA41
:104970005DE001A8FEF782FE15208DF808002E48A4
:1049800090F88C10D0F88C00401C2B4AC2F88C0098
:10499000C8B28DF809000520FEF7B8F8ADF806009A
:1049A000092101A8FFF73CFA8DF80C00092101A8A4
:1049B00000F014FB0446002C03DA21461FA0FDF78B
:1049C0007BFE092101A8FFF73FFA30E001A8FEF7BE
:1049D00055FE29208DF80800174890F88C10D0F863
:1049E0008C00401C144AC2F88C00C8B28DF8090033
:1049F0000520FEF78BF8ADF80600092101A8FFF7A6
:104A00000FFA8DF80C00092101A800F0E7FA04461E
:104A1000002C03DA214609A0FDF74EFE092101A86A
:104A2000FFF712FA03E00CA0FDF746FE00BF00BF3F
:104A3000204607B030BD0000880500204552523A9C
:104A40002075617274207772697465206572726F67
:104A500072202564200A00004552523A20436667BE
:104A60004D6F6465206572726F72210A000000004C
:104A7000FDF702FC4820FDF7E9FFFBF7DDFEFCF740
:104A80000BFDFCF7A3F84FF40051BF48FCF7B2FB55
:104A90006420FDF7FFFFFCF77BFA40F2E731472087
:104AA000FDF713FC472140F2E730FDF74DFCB74915
:104AB0000868B749FBF7A4FD1ED3B4490868B54997
:104AC000FBF7A8FD18D3B14948684FF07E51FBF7BA
:104AD00097FD11D3AD494868AF49FBF79BFD0BD358
:104AE000AA498868AD49FBF78BFD05D3A7498868BB
:104AF000A849FBF78FFD19D2A948A4490860A94C21
:104B000008464460A6488860250CA6B233462A466B
:104B10001E21A548FCF770FAFCF762FA1E21A24894
:104B2000801DFCF711FAFCF705FA00BF00F082FACD
:104B3000FFF744FE0220FFF757FEC820FDF7AAFF4B
:104B40009AA0FDF7B9FDC820FDF7A4FF1BE1994825
:104B5000FFF7C8FCFDF76CFF054697480068281A68
:104B6000642805D9FDF700FAFDF738FD9248056085
:104B70009248047874B392480078012804D002283F
:104B80001DD0032825D123E0012C0CD102208C4913
:104B9000087001208B49087000208B49087048700C
:104BA000864908700AE00B2C08D10320844908705C
:104BB00001208649087000208049087009E0012C16
:104BC00005D101207E49087000207C49087000E072
:104BD00000BF00BF7E4800787949097888421AD022
:104BE000FCF70EFD76480078012804D0022805D095
:104BF000032809D105E0FCF7AEFF05E0FDF703F857
:104C000002E0FDF7A7F800BF00BFFCF79BFD6C4872
:104C100000786F4908706A480078012804D002289B
:104C200009D0032806D18AE0FDF766F9FBF7A2FF59
:104C3000FBF7EAFF9CE06648007861490978884202
:104C40002ED0002063490870634908705E480078E0
:104C5000624908705C4840786149087001206149E8
:104C600008705849087000205749087048708870CB
:104C70000846007808B1012000E000204D49487046
:104C80005148407808B1012000E0002049490870EF
:104C90004D48807808B1012000E000204549887027
:104CA000FDF7DCF906460027474800784B490978AC
:104CB000884205D14448407849490978884208D05B
:104CC000012741480078454908703F4840784449E9
:104CD00008704048007838B13F480078864203D1D8
:104CE00017B94048007880B1FCF78DFF3046FCF7DB
:104CF00064FFFCF72FFC0120364908703648067027
:104D0000002038490870FCF71DFD74B13046FCF7EF
:104D1000F1FBFCF778FF3046FCF74FFFFCF71AFC7D
:104D2000FCF710FD002025490870FCF76CFF3046A9
:104D3000FCF743FFFCF70EFCFBF766FF18E0FDF7FE
:104D4000ABF9064628480078012810D0012E09DB6F
:104D5000042E07DC2548007820B9FCF7FBFF012072
:104D6000224908703046FCF771FFFDF727FA00BFB3
:104D700000BF1F480068281A192803D9FCF7E2FC75
:104D80001B48056000BFE2E600100140140500204A
:104D90000000A041000048420000A0400000204167
:104DA0000000F0410000404000F0010853746172BF
:104DB00074200A00640500200C000020310000204F
:104DC0000000002006000020340000200700002022
:104DD000080000201400002015000020160000200C
:104DE00017000020180000200300002019000020F8
:104DF00010000020012080F3138800BF00BF074887
:104E0000006800F4E06006490843001D034908609B
:104E1000BFF34F8F00BF00BFFEE700000CED00E0C6
:104E20000000FA0500B5024612B94FF0FF3000BD90
:104E300050689168884201D10020F8E75068916875
:104E4000884203D290685168401AF0E7104600F09B
:104E500014F851689368C91A401AE8E730B5044657
:104E600014B94FF0FF3030BD204600F006F805467B
:104E70002046FFF7D7FF281AF5E7014611B94FF092
:104E8000FF3070470868FCE7014611B94FF0FF306A
:104E90007047C8684860C86888600020F8E72DE956
:104EA000F04104460F461646002514B9681EBDE8B9
:104EB000F08117B94FF0FF30F9E76068A1688842C8
:104EC00014D22046FFF7AEFFB04201D9304602E0CF
:104ED0002046FFF7A7FF054661682A463846FBF7DC
:104EE0001DF96068284460602846E0E72046FFF727
:104EF000C4FF6168E268891A401AB0420AD935468F
:104F000061682A463846FBF709F960682844606002
:104F10002846CCE72046FFF7B0FF6168E268891AAF
:104F2000451A61682A463846FBF7F8F8E068606081
:104F3000721B79192046FFF7B2FF05442846B6E7F1
:104F40002DE9F04104460F461546002604B11FB96D
:104F50004FF0FF30BDE8F0812046FFF77FFFA84209
:104F600002D86FF00100F5E76068A16888422AD88E
:104F70002046FFF782FFA168E268891A461AB54207
:104F800013D8A0682A463946FBF7C8F8A068284419
:104F9000A0602046FFF771FFE1680844A1688842DD
:104FA00001D1E068A0602846D4E7A06832463946BF
:104FB000FBF7B4F8E068A060AA1BB9192046FFF718
:104FC000BFFF3044C6E7A0682A463946FBF7A6F87B
:104FD000A0682844A0602846BCE7000070B50546DC
:104FE0000E4600240DB9601E70BD00241BE0295D33
:104FF0000F48FDF7EEFA00BF40210D48FDF7ADFA6E
:105000000028F9D0022C0DD3285DFF280AD15521A4
:105010000748FDF7DEFA00BF40210548FDF79DFA7D
:105020000028F9D0641CB442E1D33046DCE700002C
:105030000044004010B523211248FBF788F80020F7
:105040001049087048708870C1F803000E4908685C
:10505000FBF777FA0B49C1F807000B484068C1F825
:105060000B0009498868FBF76CFA0649C1F80F0084
:105070000020C1F81300C1F81700C1F81B00C1F8E7
:105080001F0010BD64050020140500200000000072
:1050900000000000002F00000000070007000014BF
:1050A0007F147F1400242A7F2A12006264081323CD
:1050B00000364955225000000503000000001C2264
:1050C0004100000041221C000014083E08140008A2
:1050D000083E0808000000A0600000080808080852
:1050E000000060600000002010080402003E5149EA
:1050F000453E0000427F4000004261514946002188
:1051000041454B31001814127F10002745454539A1
:10511000003C4A49493000017109050300364949FC
:10512000493600064949291E0000363600000000B5
:105130005636000000081422410000141414141400
:1051400000004122140800020151090600324959A9
:10515000513E007C1211127C007F49494936003EC5
:1051600041414122007F4141221C007F4949494180
:10517000007F09090901003E4149497A007F08087A
:10518000087F0000417F4100002040413F01007F37
:1051900008142241007F40404040007F020C027F03
:1051A000007F0408107F003E4141413E007F090915
:1051B0000906003E4151215E007F0919294600463B
:1051C000494949310001017F0101003F4040403F12
:1051D000001F2040201F003F4038403F006314085C
:1051E0001463000708700807006151494543000037
:1051F0007F41410000552A552A55000041417F005A
:10520000000402010204004040404040000001024E
:105210000400002054545478007F48444438003837
:105220004444442000384444487F003854545418BF
:1052300000087E0901020018A4A4A47C007F0804D1
:1052400004780000447D4000004080847D00007FA1
:10525000102844000000417F4000007C04180478BE
:10526000007C0804047800384444443800FC2424BA
:1052700024180018242418FC007C080404080048A2
:105280005454542000043F444020003C4040207CC3
:10529000001C2040201C003C4030403C00442810B2
:1052A0002844001CA0A0A07C004464544C44141466
:1052B000141414140000000000000000000000009E
:1052C0000000FC000000000002000000000C020CC6
:1052D000020000000000000090D0BCD0BC90000391
:1052E000000300001824FE448C00030207020100A2
:1052F0001824D8B04C80000300010201C038E43803
:10530000E0000102020102020806000000000000A5
:1053100000000000000000F8040200000001020488
:10532000000204F800000004020100009060F86030
:1053300090000000010000002020FC202000000060
:10534000010000000000000000000806000000004E
:1053500020202020200000000000000000000000AD
:1053600000000002000000000080601C0200040336
:1053700000000000F8040404F80001020202010029
:105380000008FC000000000203020000188444240E
:10539000180003020202020008042424D8000102BB
:1053A0000202010040B088FC8000000000030200FF
:1053B0003C242424C400010202020100F824242C0D
:1053C000C0000102020201000C04E41C0400000001
:1053D00003000000D8242424D800010202020100A6
:1053E00038444444F80000030202010000001000A9
:1053F000000000000200000000002000000000008B
:105400000600000000205088040200000000010295
:10541000909090909000000000000000000204882E
:1054200050200002010000001804C42418000000ED
:1054300002000000F804E494F800010202020200F5
:1054400000E09CF0800002030000030204FC24241E
:10545000D800020302020100F80404040C00010257
:105460000202010004FC0404F8000203020201002D
:1054700004FC24740C0002030202030004FC2474E4
:105480000C00020302000000F0080444CC400001BC
:105490000202010004FC2020FC04020300000302BD
:1054A0000404FC040400020203020200000404FCE1
:1054B000040406040403000004FC24D00C040203CA
:1054C0000200030204FC04000000020302020203C3
:1054D000FC3CC03CFC0003000300030004FC30C49F
:1054E000FC04020302000300F8040404F8000102B3
:1054F0000202010004FC2424180002030200000040
:10550000F8848404F80001020207050004FC246406
:105510009800020302000302182424448C000302B2
:10552000020201000C04FC040C0000020302000053
:1055300004FC0000FC04000102020100047C80E085
:105540001C040000030000001CE03CE01C00000301
:1055500000030000049C609C04000203000302009E
:10556000041CE01C04000002030200000C84641C04
:1055700004000203020203000000FE020200000019
:1055800007040400000E30C000000000000102000B
:10559000000202FE000000040407000000040204F0
:1055A00000000000000000000000000000000808EB
:1055B00008080808000002000000000000000000C9
:1055C0000040A0A0C00000010202030204FC202051
:1055D000C00000030202010000C0202060000001A2
:1055E0000202020000C02024FC00000102020302AB
:1055F00000C0A0A0C0000001020202000020F824A8
:1056000024040002030202000040A0A06020000762
:105610000A0A0A0404FC2020C0000203020003025C
:105620000020E4000000000203020000000020E46B
:10563000000008080807000004FC80E020200203A6
:10564000020003020404FC00000002020302020044
:10565000E020E020C00003000300030020E0202041
:10566000C00002030200030200C02020C0000001AD
:105670000202010020E02020C000080F0A02010001
:1056800000C02020E0000001020A0F0820E04020B6
:1056900020000203020000000060A0A02000000221
:1056A000020203000020F8200000000001020200B6
:1056B00020E00020E00000010202030220E0208040
:1056C00060200000030100006080E08060000003B3
:1056D000000300002060806020000203000302003D
:1056E00020E0208060200808070100000020A06062
:1056F0002000000203020200000020DE0200000081
:1057000000070400000000FF00000000000F000080
:105710000002DE2000000004070000000201020475
:105720000402000000000000000000000000000073
:105730000000000000000000000000F80000000071
:10574000000000333000000000100C06100C0600B2
:10575000000000000000000040C07840C078400019
:10576000043F04043F040400007088FC083000007B
:10577000001820FF211E0000F008F000E0180000D3
:1057800000211C031E211E0000F00888700000008C
:105790001E2123241927211010160E0000000000DE
:1057A0000000000000000000000000E018040200FB
:1057B000000000071820400000020418E00000006C
:1057C0000040201807000000404080F0804040006A
:1057D0000202010F01020200000000F000000000C0
:1057E0000101011F01010100000000000000000094
:1057F00080B0700000000000000000000000000009
:105800000001010101010101000000000000000091
:10581000003030000000000000000000806018042C
:10582000006018060100000000E010080810E00009
:10583000000F102020100F00001010F800000000D2
:105840000020203F20200000007008080888700019
:105850000030282422213000003008888848300099
:105860000018202020110E000000C02010F80000B9
:1058700000070424243F240000F808888808080052
:105880000019212020110E0000E010888818000067
:10589000000F112020110E0000380808C838080039
:1058A0000000003F000000000070880808887000B9
:1058B000001C222121221C0000E010080810E0003A
:1058C0000000312222110F00000000C0C0000000C3
:1058D00000000030300000000000008000000000E8
:1058E00000008060000000000000804020100800E0
:1058F00000010204081020004040404040404000A9
:105900000404040404040400000810204080000083
:105910000020100804020100007048080808F00088
:105920000000003036010000C030C828E810E00058
:105930000718272423140B000000C038E0000000E3
:10594000203C23020227382008F88888887000004D
:10595000203F202020110E00C03008080808380021
:10596000071820202010080008F808080810E00098
:10597000203F202020100F0008F88888E808100039
:10598000203F20202320180008F88888E80810000D
:10599000203F200003000000C03008080838000045
:1059A00007182020221E020008F808000008F80846
:1059B000203F210101213F20000808F808080000CD
:1059C0000020203F2020000000000808F808080000
:1059D000C08080807F00000008F888C02818080078
:1059E000203F20012638200008F8080000000000B1
:1059F000203F20202020300008F8F800F8F80800A8
:105A0000203F003F003F200008F830C00008F808A1
:105A1000203F200007183F00E01008080810E000B1
:105A20000F10202020100F0008F808080808F000C8
:105A3000203F210101010000E01008080810E000EB
:105A40000F18242438504F0008F888888888700080
:105A5000203F2000030C3020007088080808380020
:105A60000038202121221C00180808F80808180016
:105A70000000203F2000000008F808000008F80897
:105A8000001F202020201F000878880000C8380848
:105A9000000007380E010000F80800F80008F800C0
:105AA000033C0700073C030008186880806818085A
:105AB00020302C03032C30200838C800C8380800D8
:105AC0000000203F2000000010080808C838080027
:105AD0002038262120201800000000FE02020200CB
